{
    "abi": [
        {
            "type": "constructor",
            "inputs": [
                {
                    "name": "_name",
                    "type": "string",
                    "internalType": "string"
                },
                {
                    "name": "_symbol",
                    "type": "string",
                    "internalType": "string"
                }
            ],
            "stateMutability": "nonpayable"
        },
        {
            "type": "function",
            "name": "approve",
            "inputs": [
                {
                    "name": "_approved",
                    "type": "address",
                    "internalType": "address"
                },
                {
                    "name": "_tokenId",
                    "type": "uint256",
                    "internalType": "uint256"
                }
            ],
            "outputs": [],
            "stateMutability": "payable"
        },
        {
            "type": "function",
            "name": "balanceOf",
            "inputs": [
                {
                    "name": "_owner",
                    "type": "address",
                    "internalType": "address"
                }
            ],
            "outputs": [
                {
                    "name": "",
                    "type": "uint256",
                    "internalType": "uint256"
                }
            ],
            "stateMutability": "view"
        },
        {
            "type": "function",
            "name": "contractOwner",
            "inputs": [],
            "outputs": [
                {
                    "name": "",
                    "type": "address",
                    "internalType": "address"
                }
            ],
            "stateMutability": "view"
        },
        {
            "type": "function",
            "name": "getApproved",
            "inputs": [
                {
                    "name": "_tokenId",
                    "type": "uint256",
                    "internalType": "uint256"
                }
            ],
            "outputs": [
                {
                    "name": "",
                    "type": "address",
                    "internalType": "address"
                }
            ],
            "stateMutability": "view"
        },
        {
            "type": "function",
            "name": "isApprovedForAll",
            "inputs": [
                {
                    "name": "_owner",
                    "type": "address",
                    "internalType": "address"
                },
                {
                    "name": "_operator",
                    "type": "address",
                    "internalType": "address"
                }
            ],
            "outputs": [
                {
                    "name": "",
                    "type": "bool",
                    "internalType": "bool"
                }
            ],
            "stateMutability": "view"
        },
        {
            "type": "function",
            "name": "mintTo",
            "inputs": [
                {
                    "name": "_to",
                    "type": "address",
                    "internalType": "address"
                },
                {
                    "name": "_uri",
                    "type": "string",
                    "internalType": "string"
                }
            ],
            "outputs": [],
            "stateMutability": "nonpayable"
        },
        {
            "type": "function",
            "name": "name",
            "inputs": [],
            "outputs": [
                {
                    "name": "",
                    "type": "string",
                    "internalType": "string"
                }
            ],
            "stateMutability": "view"
        },
        {
            "type": "function",
            "name": "nextTokenIdToMint",
            "inputs": [],
            "outputs": [
                {
                    "name": "",
                    "type": "uint256",
                    "internalType": "uint256"
                }
            ],
            "stateMutability": "view"
        },
        {
            "type": "function",
            "name": "ownerOf",
            "inputs": [
                {
                    "name": "_tokenId",
                    "type": "uint256",
                    "internalType": "uint256"
                }
            ],
            "outputs": [
                {
                    "name": "",
                    "type": "address",
                    "internalType": "address"
                }
            ],
            "stateMutability": "view"
        },
        {
            "type": "function",
            "name": "safeTransferFrom",
            "inputs": [
                {
                    "name": "_from",
                    "type": "address",
                    "internalType": "address"
                },
                {
                    "name": "_to",
                    "type": "address",
                    "internalType": "address"
                },
                {
                    "name": "_tokenId",
                    "type": "uint256",
                    "internalType": "uint256"
                }
            ],
            "outputs": [],
            "stateMutability": "payable"
        },
        {
            "type": "function",
            "name": "safeTransferFrom",
            "inputs": [
                {
                    "name": "_from",
                    "type": "address",
                    "internalType": "address"
                },
                {
                    "name": "_to",
                    "type": "address",
                    "internalType": "address"
                },
                {
                    "name": "_tokenId",
                    "type": "uint256",
                    "internalType": "uint256"
                },
                {
                    "name": "_data",
                    "type": "bytes",
                    "internalType": "bytes"
                }
            ],
            "outputs": [],
            "stateMutability": "payable"
        },
        {
            "type": "function",
            "name": "setApprovalForAll",
            "inputs": [
                {
                    "name": "_operator",
                    "type": "address",
                    "internalType": "address"
                },
                {
                    "name": "_approved",
                    "type": "bool",
                    "internalType": "bool"
                }
            ],
            "outputs": [],
            "stateMutability": "nonpayable"
        },
        {
            "type": "function",
            "name": "symbol",
            "inputs": [],
            "outputs": [
                {
                    "name": "",
                    "type": "string",
                    "internalType": "string"
                }
            ],
            "stateMutability": "view"
        },
        {
            "type": "function",
            "name": "tokenURI",
            "inputs": [
                {
                    "name": "_tokenId",
                    "type": "uint256",
                    "internalType": "uint256"
                }
            ],
            "outputs": [
                {
                    "name": "",
                    "type": "string",
                    "internalType": "string"
                }
            ],
            "stateMutability": "view"
        },
        {
            "type": "function",
            "name": "totalSupply",
            "inputs": [],
            "outputs": [
                {
                    "name": "",
                    "type": "uint256",
                    "internalType": "uint256"
                }
            ],
            "stateMutability": "view"
        },
        {
            "type": "function",
            "name": "transferFrom",
            "inputs": [
                {
                    "name": "_from",
                    "type": "address",
                    "internalType": "address"
                },
                {
                    "name": "_to",
                    "type": "address",
                    "internalType": "address"
                },
                {
                    "name": "_tokenId",
                    "type": "uint256",
                    "internalType": "uint256"
                }
            ],
            "outputs": [],
            "stateMutability": "payable"
        },
        {
            "type": "event",
            "name": "Approval",
            "inputs": [
                {
                    "name": "owner",
                    "type": "address",
                    "indexed": true,
                    "internalType": "address"
                },
                {
                    "name": "approved",
                    "type": "address",
                    "indexed": true,
                    "internalType": "address"
                },
                {
                    "name": "_tokenId",
                    "type": "uint256",
                    "indexed": true,
                    "internalType": "uint256"
                }
            ],
            "anonymous": false
        },
        {
            "type": "event",
            "name": "ApprovalForAll",
            "inputs": [
                {
                    "name": "owner",
                    "type": "address",
                    "indexed": true,
                    "internalType": "address"
                },
                {
                    "name": "operator",
                    "type": "address",
                    "indexed": true,
                    "internalType": "address"
                },
                {
                    "name": "_approved",
                    "type": "bool",
                    "indexed": false,
                    "internalType": "bool"
                }
            ],
            "anonymous": false
        },
        {
            "type": "event",
            "name": "Transfer",
            "inputs": [
                {
                    "name": "from",
                    "type": "address",
                    "indexed": true,
                    "internalType": "address"
                },
                {
                    "name": "to",
                    "type": "address",
                    "indexed": true,
                    "internalType": "address"
                },
                {
                    "name": "_tokenId",
                    "type": "uint256",
                    "indexed": true,
                    "internalType": "uint256"
                }
            ],
            "anonymous": false
        }
    ],
    "bytecode": {
        "object": "0x608060405234801561000f575f5ffd5b50604051612454380380612454833981810160405281019061003191906101eb565b815f908161003f9190610482565b50806001908161004f9190610482565b505f6002819055503360035f6101000a81548173ffffffffffffffffffffffffffffffffffffffff021916908373ffffffffffffffffffffffffffffffffffffffff1602179055505050610551565b5f604051905090565b5f5ffd5b5f5ffd5b5f5ffd5b5f5ffd5b5f601f19601f8301169050919050565b7f4e487b71000000000000000000000000000000000000000000000000000000005f52604160045260245ffd5b6100fd826100b7565b810181811067ffffffffffffffff8211171561011c5761011b6100c7565b5b80604052505050565b5f61012e61009e565b905061013a82826100f4565b919050565b5f67ffffffffffffffff821115610159576101586100c7565b5b610162826100b7565b9050602081019050919050565b8281835e5f83830152505050565b5f61018f61018a8461013f565b610125565b9050828152602081018484840111156101ab576101aa6100b3565b5b6101b684828561016f565b509392505050565b5f82601f8301126101d2576101d16100af565b5b81516101e284826020860161017d565b91505092915050565b5f5f60408385031215610201576102006100a7565b5b5f83015167ffffffffffffffff81111561021e5761021d6100ab565b5b61022a858286016101be565b925050602083015167ffffffffffffffff81111561024b5761024a6100ab565b5b610257858286016101be565b9150509250929050565b5f81519050919050565b7f4e487b71000000000000000000000000000000000000000000000000000000005f52602260045260245ffd5b5f60028204905060018216806102af57607f821691505b6020821081036102c2576102c161026b565b5b50919050565b5f819050815f5260205f209050919050565b5f6020601f8301049050919050565b5f82821b905092915050565b5f600883026103247fffffffffffffffffffffffffffffffffffffffffffffffffffffffffffffffff826102e9565b61032e86836102e9565b95508019841693508086168417925050509392505050565b5f819050919050565b5f819050919050565b5f61037261036d61036884610346565b61034f565b610346565b9050919050565b5f819050919050565b61038b83610358565b61039f61039782610379565b8484546102f5565b825550505050565b5f5f905090565b6103b66103a7565b6103c1818484610382565b505050565b5f5b828110156103e7576103dc5f8284016103ae565b6001810190506103c8565b505050565b601f82111561043a578282111561043957610406816102c8565b61040f836102da565b610418856102da565b6020861015610425575f90505b808301610434828403826103c6565b505050505b5b505050565b5f82821c905092915050565b5f61045a5f198460080261043f565b1980831691505092915050565b5f610472838361044b565b9150826002028217905092915050565b61048b82610261565b67ffffffffffffffff8111156104a4576104a36100c7565b5b6104ae8254610298565b6104b98282856103ec565b5f60209050601f8311600181146104ea575f84156104d8578287015190505b6104e28582610467565b865550610549565b601f1984166104f8866102c8565b5f5b8281101561051f578489015182556001820191506020850194506020810190506104fa565b8683101561053c5784890151610538601f89168261044b565b8355505b6001600288020188555050505b505050505050565b611ef68061055e5f395ff3fe6080604052600436106100f1575f3560e01c80636352211e11610089578063b88d4fde11610058578063b88d4fde146102f5578063c87b56dd14610311578063ce606ee01461034d578063e985e9c514610377576100f1565b80636352211e1461022b57806370a082311461026757806395d89b41146102a3578063a22cb465146102cd576100f1565b806318160ddd116100c557806318160ddd1461019f57806323b872dd146101c95780633b1475a7146101e557806342842e0e1461020f576100f1565b806275a317146100f557806306fdde031461011d578063081812fc14610147578063095ea7b314610183575b5f5ffd5b348015610100575f5ffd5b5061011b600480360381019061011691906113ce565b6103b3565b005b348015610128575f5ffd5b50610131610582565b60405161013e9190611488565b60405180910390f35b348015610152575f5ffd5b5061016d600480360381019061016891906114db565b61060d565b60405161017a9190611515565b60405180910390f35b61019d6004803603810190610198919061152e565b610646565b005b3480156101aa575f5ffd5b506101b3610772565b6040516101c0919061157b565b60405180910390f35b6101e360048036038101906101de9190611594565b61077b565b005b3480156101f0575f5ffd5b506101f96108fb565b604051610206919061157b565b60405180910390f35b61022960048036038101906102249190611594565b610901565b005b348015610236575f5ffd5b50610251600480360381019061024c91906114db565b610920565b60405161025e9190611515565b60405180910390f35b348015610272575f5ffd5b5061028d600480360381019061028891906115e4565b610959565b60405161029a919061157b565b60405180910390f35b3480156102ae575f5ffd5b506102b761099f565b6040516102c49190611488565b60405180910390f35b3480156102d8575f5ffd5b506102f360048036038101906102ee9190611644565b610a2b565b005b61030f600480360381019061030a9190611720565b610b23565b005b34801561031c575f5ffd5b50610337600480360381019061033291906114db565b610cef565b6040516103449190611488565b60405180910390f35b348015610358575f5ffd5b50610361610d90565b60405161036e9190611515565b60405180910390f35b348015610382575f5ffd5b5061039d600480360381019061039891906117a0565b610db5565b6040516103aa91906117ed565b60405180910390f35b3373ffffffffffffffffffffffffffffffffffffffff1660035f9054906101000a900473ffffffffffffffffffffffffffffffffffffffff1673ffffffffffffffffffffffffffffffffffffffff1614610442576040517f08c379a000000000000000000000000000000000000000000000000000000000815260040161043990611850565b60405180910390fd5b8160045f60025481526020019081526020015f205f6101000a81548173ffffffffffffffffffffffffffffffffffffffff021916908373ffffffffffffffffffffffffffffffffffffffff160217905550600160055f8473ffffffffffffffffffffffffffffffffffffffff1673ffffffffffffffffffffffffffffffffffffffff1681526020019081526020015f205f8282546104e0919061189b565b925050819055508060085f60025481526020019081526020015f2090816105079190611adc565b506002548273ffffffffffffffffffffffffffffffffffffffff165f73ffffffffffffffffffffffffffffffffffffffff167fddf252ad1be2c89b69c2b068fc378daa952ba7f163c4a11628f55a4df523b3ef60405160405180910390a4600160025f828254610577919061189b565b925050819055505050565b5f805461058e906118fb565b80601f01602080910402602001604051908101604052809291908181526020018280546105ba906118fb565b80156106055780601f106105dc57610100808354040283529160200191610605565b820191905f5260205f20905b8154815290600101906020018083116105e857829003601f168201915b505050505081565b5f60065f8381526020019081526020015f205f9054906101000a900473ffffffffffffffffffffffffffffffffffffffff169050919050565b3373ffffffffffffffffffffffffffffffffffffffff1661066682610920565b73ffffffffffffffffffffffffffffffffffffffff16146106bc576040517f08c379a00000000000000000000000000000000000000000000000000000000081526004016106b390611bf5565b60405180910390fd5b8160065f8381526020019081526020015f205f6101000a81548173ffffffffffffffffffffffffffffffffffffffff021916908373ffffffffffffffffffffffffffffffffffffffff160217905550808273ffffffffffffffffffffffffffffffffffffffff1661072c83610920565b73ffffffffffffffffffffffffffffffffffffffff167f8c5be1e5ebec7d5bd14f71427d1e84f3dd0314c0f7b2291e5b200ac8c7c3b92560405160405180910390a45050565b5f600254905090565b3373ffffffffffffffffffffffffffffffffffffffff1661079b82610920565b73ffffffffffffffffffffffffffffffffffffffff16148061081857503373ffffffffffffffffffffffffffffffffffffffff1660065f8381526020019081526020015f205f9054906101000a900473ffffffffffffffffffffffffffffffffffffffff1673ffffffffffffffffffffffffffffffffffffffff16145b806108ac575060075f61082a83610920565b73ffffffffffffffffffffffffffffffffffffffff1673ffffffffffffffffffffffffffffffffffffffff1681526020019081526020015f205f3373ffffffffffffffffffffffffffffffffffffffff1673ffffffffffffffffffffffffffffffffffffffff1681526020019081526020015f205f9054906101000a900460ff165b6108eb576040517f08c379a00000000000000000000000000000000000000000000000000000000081526004016108e290611850565b60405180910390fd5b6108f6838383610e43565b505050565b60025481565b61091b83838360405180602001604052805f815250610b23565b505050565b5f60045f8381526020019081526020015f205f9054906101000a900473ffffffffffffffffffffffffffffffffffffffff169050919050565b5f60055f8373ffffffffffffffffffffffffffffffffffffffff1673ffffffffffffffffffffffffffffffffffffffff1681526020019081526020015f20549050919050565b600180546109ac906118fb565b80601f01602080910402602001604051908101604052809291908181526020018280546109d8906118fb565b8015610a235780601f106109fa57610100808354040283529160200191610a23565b820191905f5260205f20905b815481529060010190602001808311610a0657829003601f168201915b505050505081565b8060075f3373ffffffffffffffffffffffffffffffffffffffff1673ffffffffffffffffffffffffffffffffffffffff1681526020019081526020015f205f8473ffffffffffffffffffffffffffffffffffffffff1673ffffffffffffffffffffffffffffffffffffffff1681526020019081526020015f205f6101000a81548160ff0219169083151502179055508173ffffffffffffffffffffffffffffffffffffffff163373ffffffffffffffffffffffffffffffffffffffff167f17307eab39ab6107e8899845ad3d59bd9653f200f220920489ca2b5937696c3183604051610b1791906117ed565b60405180910390a35050565b3373ffffffffffffffffffffffffffffffffffffffff16610b4383610920565b73ffffffffffffffffffffffffffffffffffffffff161480610bc057503373ffffffffffffffffffffffffffffffffffffffff1660065f8481526020019081526020015f205f9054906101000a900473ffffffffffffffffffffffffffffffffffffffff1673ffffffffffffffffffffffffffffffffffffffff16145b80610c54575060075f610bd284610920565b73ffffffffffffffffffffffffffffffffffffffff1673ffffffffffffffffffffffffffffffffffffffff1681526020019081526020015f205f3373ffffffffffffffffffffffffffffffffffffffff1673ffffffffffffffffffffffffffffffffffffffff1681526020019081526020015f205f9054906101000a900460ff165b610c93576040517f08c379a0000000000000000000000000000000000000000000000000000000008152600401610c8a90611850565b60405180910390fd5b610c9e848484610e43565b610caa848484846110b1565b610ce9576040517f08c379a0000000000000000000000000000000000000000000000000000000008152600401610ce090611c5d565b60405180910390fd5b50505050565b606060085f8381526020019081526020015f208054610d0d906118fb565b80601f0160208091040260200160405190810160405280929190818152602001828054610d39906118fb565b8015610d845780601f10610d5b57610100808354040283529160200191610d84565b820191905f5260205f20905b815481529060010190602001808311610d6757829003601f168201915b50505050509050919050565b60035f9054906101000a900473ffffffffffffffffffffffffffffffffffffffff1681565b5f60075f8473ffffffffffffffffffffffffffffffffffffffff1673ffffffffffffffffffffffffffffffffffffffff1681526020019081526020015f205f8373ffffffffffffffffffffffffffffffffffffffff1673ffffffffffffffffffffffffffffffffffffffff1681526020019081526020015f205f9054906101000a900460ff16905092915050565b8273ffffffffffffffffffffffffffffffffffffffff16610e6382610920565b73ffffffffffffffffffffffffffffffffffffffff1614610eb9576040517f08c379a0000000000000000000000000000000000000000000000000000000008152600401610eb090611bf5565b60405180910390fd5b5f73ffffffffffffffffffffffffffffffffffffffff168273ffffffffffffffffffffffffffffffffffffffff1603610f27576040517f08c379a0000000000000000000000000000000000000000000000000000000008152600401610f1e90611cc5565b60405180910390fd5b60065f8281526020019081526020015f205f6101000a81549073ffffffffffffffffffffffffffffffffffffffff0219169055600160055f8573ffffffffffffffffffffffffffffffffffffffff1673ffffffffffffffffffffffffffffffffffffffff1681526020019081526020015f205f828254610fa79190611ce3565b92505081905550600160055f8473ffffffffffffffffffffffffffffffffffffffff1673ffffffffffffffffffffffffffffffffffffffff1681526020019081526020015f205f828254610ffb919061189b565b925050819055508160045f8381526020019081526020015f205f6101000a81548173ffffffffffffffffffffffffffffffffffffffff021916908373ffffffffffffffffffffffffffffffffffffffff160217905550808273ffffffffffffffffffffffffffffffffffffffff168473ffffffffffffffffffffffffffffffffffffffff167fddf252ad1be2c89b69c2b068fc378daa952ba7f163c4a11628f55a4df523b3ef60405160405180910390a4505050565b5f5f8473ffffffffffffffffffffffffffffffffffffffff163b111561121a578373ffffffffffffffffffffffffffffffffffffffff1663150b7a02338786866040518563ffffffff1660e01b81526004016111109493929190611d68565b6020604051808303815f875af192505050801561114b57506040513d601f19601f820116820180604052508101906111489190611e07565b60015b6111ca573d805f8114611179576040519150601f19603f3d011682016040523d82523d5f602084013e61117e565b606091505b505f8151036111c2576040517f08c379a00000000000000000000000000000000000000000000000000000000081526004016111b990611ea2565b60405180910390fd5b805181602001fd5b63150b7a0260e01b7bffffffffffffffffffffffffffffffffffffffffffffffffffffffff1916817bffffffffffffffffffffffffffffffffffffffffffffffffffffffff19161491505061121f565b600190505b949350505050565b5f604051905090565b5f5ffd5b5f5ffd5b5f73ffffffffffffffffffffffffffffffffffffffff82169050919050565b5f61126182611238565b9050919050565b61127181611257565b811461127b575f5ffd5b50565b5f8135905061128c81611268565b92915050565b5f5ffd5b5f5ffd5b5f601f19601f8301169050919050565b7f4e487b71000000000000000000000000000000000000000000000000000000005f52604160045260245ffd5b6112e08261129a565b810181811067ffffffffffffffff821117156112ff576112fe6112aa565b5b80604052505050565b5f611311611227565b905061131d82826112d7565b919050565b5f67ffffffffffffffff82111561133c5761133b6112aa565b5b6113458261129a565b9050602081019050919050565b828183375f83830152505050565b5f61137261136d84611322565b611308565b90508281526020810184848401111561138e5761138d611296565b5b611399848285611352565b509392505050565b5f82601f8301126113b5576113b4611292565b5b81356113c5848260208601611360565b91505092915050565b5f5f604083850312156113e4576113e3611230565b5b5f6113f18582860161127e565b925050602083013567ffffffffffffffff81111561141257611411611234565b5b61141e858286016113a1565b9150509250929050565b5f81519050919050565b5f82825260208201905092915050565b8281835e5f83830152505050565b5f61145a82611428565b6114648185611432565b9350611474818560208601611442565b61147d8161129a565b840191505092915050565b5f6020820190508181035f8301526114a08184611450565b905092915050565b5f819050919050565b6114ba816114a8565b81146114c4575f5ffd5b50565b5f813590506114d5816114b1565b92915050565b5f602082840312156114f0576114ef611230565b5b5f6114fd848285016114c7565b91505092915050565b61150f81611257565b82525050565b5f6020820190506115285f830184611506565b92915050565b5f5f6040838503121561154457611543611230565b5b5f6115518582860161127e565b9250506020611562858286016114c7565b9150509250929050565b611575816114a8565b82525050565b5f60208201905061158e5f83018461156c565b92915050565b5f5f5f606084860312156115ab576115aa611230565b5b5f6115b88682870161127e565b93505060206115c98682870161127e565b92505060406115da868287016114c7565b9150509250925092565b5f602082840312156115f9576115f8611230565b5b5f6116068482850161127e565b91505092915050565b5f8115159050919050565b6116238161160f565b811461162d575f5ffd5b50565b5f8135905061163e8161161a565b92915050565b5f5f6040838503121561165a57611659611230565b5b5f6116678582860161127e565b925050602061167885828601611630565b9150509250929050565b5f67ffffffffffffffff82111561169c5761169b6112aa565b5b6116a58261129a565b9050602081019050919050565b5f6116c46116bf84611682565b611308565b9050828152602081018484840111156116e0576116df611296565b5b6116eb848285611352565b509392505050565b5f82601f83011261170757611706611292565b5b81356117178482602086016116b2565b91505092915050565b5f5f5f5f6080858703121561173857611737611230565b5b5f6117458782880161127e565b94505060206117568782880161127e565b9350506040611767878288016114c7565b925050606085013567ffffffffffffffff81111561178857611787611234565b5b611794878288016116f3565b91505092959194509250565b5f5f604083850312156117b6576117b5611230565b5b5f6117c38582860161127e565b92505060206117d48582860161127e565b9150509250929050565b6117e78161160f565b82525050565b5f6020820190506118005f8301846117de565b92915050565b7f21417574680000000000000000000000000000000000000000000000000000005f82015250565b5f61183a600583611432565b915061184582611806565b602082019050919050565b5f6020820190508181035f8301526118678161182e565b9050919050565b7f4e487b71000000000000000000000000000000000000000000000000000000005f52601160045260245ffd5b5f6118a5826114a8565b91506118b0836114a8565b92508282019050808211156118c8576118c761186e565b5b92915050565b7f4e487b71000000000000000000000000000000000000000000000000000000005f52602260045260245ffd5b5f600282049050600182168061191257607f821691505b602082108103611925576119246118ce565b5b50919050565b5f819050815f5260205f209050919050565b5f6020601f8301049050919050565b5f82821b905092915050565b5f600883026119877fffffffffffffffffffffffffffffffffffffffffffffffffffffffffffffffff8261194c565b611991868361194c565b95508019841693508086168417925050509392505050565b5f819050919050565b5f6119cc6119c76119c2846114a8565b6119a9565b6114a8565b9050919050565b5f819050919050565b6119e5836119b2565b6119f96119f1826119d3565b848454611958565b825550505050565b5f5f905090565b611a10611a01565b611a1b8184846119dc565b505050565b5f5b82811015611a4157611a365f828401611a08565b600181019050611a22565b505050565b601f821115611a945782821115611a9357611a608161192b565b611a698361193d565b611a728561193d565b6020861015611a7f575f90505b808301611a8e82840382611a20565b505050505b5b505050565b5f82821c905092915050565b5f611ab45f1984600802611a99565b1980831691505092915050565b5f611acc8383611aa5565b9150826002028217905092915050565b611ae582611428565b67ffffffffffffffff811115611afe57611afd6112aa565b5b611b0882546118fb565b611b13828285611a46565b5f60209050601f831160018114611b44575f8415611b32578287015190505b611b3c8582611ac1565b865550611ba3565b601f198416611b528661192b565b5f5b82811015611b7957848901518255600182019150602085019450602081019050611b54565b86831015611b965784890151611b92601f891682611aa5565b8355505b6001600288020188555050505b505050505050565b7f214f776e657200000000000000000000000000000000000000000000000000005f82015250565b5f611bdf600683611432565b9150611bea82611bab565b602082019050919050565b5f6020820190508181035f830152611c0c81611bd3565b9050919050565b7f21455243373231526563656976657200000000000000000000000000000000005f82015250565b5f611c47600f83611432565b9150611c5282611c13565b602082019050919050565b5f6020820190508181035f830152611c7481611c3b565b9050919050565b7f21546f41646430000000000000000000000000000000000000000000000000005f82015250565b5f611caf600783611432565b9150611cba82611c7b565b602082019050919050565b5f6020820190508181035f830152611cdc81611ca3565b9050919050565b5f611ced826114a8565b9150611cf8836114a8565b9250828203905081811115611d1057611d0f61186e565b5b92915050565b5f81519050919050565b5f82825260208201905092915050565b5f611d3a82611d16565b611d448185611d20565b9350611d54818560208601611442565b611d5d8161129a565b840191505092915050565b5f608082019050611d7b5f830187611506565b611d886020830186611506565b611d95604083018561156c565b8181036060830152611da78184611d30565b905095945050505050565b5f7fffffffff0000000000000000000000000000000000000000000000000000000082169050919050565b611de681611db2565b8114611df0575f5ffd5b50565b5f81519050611e0181611ddd565b92915050565b5f60208284031215611e1c57611e1b611230565b5b5f611e2984828501611df3565b91505092915050565b7f4552433732313a207472616e7366657220746f206e6f6e2045524337323152655f8201527f63656976657220696d706c656d656e7465720000000000000000000000000000602082015250565b5f611e8c603283611432565b9150611e9782611e32565b604082019050919050565b5f6020820190508181035f830152611eb981611e80565b905091905056fea26469706673582212206afcd26ff15abf130900794ec953234eebcc07ebf5bb7b678e2131fbfbd995b364736f6c63430008210033",
        "linkReferences": {}
    },
    "methodIdentifiers": {
        "approve(address,uint256)": "095ea7b3",
        "balanceOf(address)": "70a08231",
        "contractOwner()": "ce606ee0",
        "getApproved(uint256)": "081812fc",
        "isApprovedForAll(address,address)": "e985e9c5",
        "mintTo(address,string)": "0075a317",
        "name()": "06fdde03",
        "nextTokenIdToMint()": "3b1475a7",
        "ownerOf(uint256)": "6352211e",
        "safeTransferFrom(address,address,uint256)": "42842e0e",
        "safeTransferFrom(address,address,uint256,bytes)": "b88d4fde",
        "setApprovalForAll(address,bool)": "a22cb465",
        "symbol()": "95d89b41",
        "tokenURI(uint256)": "c87b56dd",
        "totalSupply()": "18160ddd",
        "transferFrom(address,address,uint256)": "23b872dd"
    },
    "id": 0
}