{
  "_format": "hh3-artifact-1",
  "contractName": "ERC721",
  "sourceName": "contracts/ECR721.sol",
  "abi": [
    {
      "inputs": [
        {
          "internalType": "string",
          "name": "_name",
          "type": "string"
        },
        {
          "internalType": "string",
          "name": "_symbol",
          "type": "string"
        }
      ],
      "stateMutability": "nonpayable",
      "type": "constructor"
    },
    {
      "anonymous": false,
      "inputs": [
        {
          "indexed": true,
          "internalType": "address",
          "name": "owner",
          "type": "address"
        },
        {
          "indexed": true,
          "internalType": "address",
          "name": "approved",
          "type": "address"
        },
        {
          "indexed": true,
          "internalType": "uint256",
          "name": "_tokenId",
          "type": "uint256"
        }
      ],
      "name": "Approval",
      "type": "event"
    },
    {
      "anonymous": false,
      "inputs": [
        {
          "indexed": true,
          "internalType": "address",
          "name": "owner",
          "type": "address"
        },
        {
          "indexed": true,
          "internalType": "address",
          "name": "operator",
          "type": "address"
        },
        {
          "indexed": false,
          "internalType": "bool",
          "name": "_approved",
          "type": "bool"
        }
      ],
      "name": "ApprovalForAll",
      "type": "event"
    },
    {
      "anonymous": false,
      "inputs": [
        {
          "indexed": true,
          "internalType": "address",
          "name": "from",
          "type": "address"
        },
        {
          "indexed": true,
          "internalType": "address",
          "name": "to",
          "type": "address"
        },
        {
          "indexed": true,
          "internalType": "uint256",
          "name": "_tokenId",
          "type": "uint256"
        }
      ],
      "name": "Transfer",
      "type": "event"
    },
    {
      "inputs": [
        {
          "internalType": "address",
          "name": "_approved",
          "type": "address"
        },
        {
          "internalType": "uint256",
          "name": "_tokenId",
          "type": "uint256"
        }
      ],
      "name": "approve",
      "outputs": [],
      "stateMutability": "payable",
      "type": "function"
    },
    {
      "inputs": [
        {
          "internalType": "address",
          "name": "_owner",
          "type": "address"
        }
      ],
      "name": "balanceOf",
      "outputs": [
        {
          "internalType": "uint256",
          "name": "",
          "type": "uint256"
        }
      ],
      "stateMutability": "view",
      "type": "function"
    },
    {
      "inputs": [],
      "name": "contractOwner",
      "outputs": [
        {
          "internalType": "address",
          "name": "",
          "type": "address"
        }
      ],
      "stateMutability": "view",
      "type": "function"
    },
    {
      "inputs": [
        {
          "internalType": "uint256",
          "name": "_tokenId",
          "type": "uint256"
        }
      ],
      "name": "getApproved",
      "outputs": [
        {
          "internalType": "address",
          "name": "",
          "type": "address"
        }
      ],
      "stateMutability": "view",
      "type": "function"
    },
    {
      "inputs": [
        {
          "internalType": "address",
          "name": "_owner",
          "type": "address"
        },
        {
          "internalType": "address",
          "name": "_operator",
          "type": "address"
        }
      ],
      "name": "isApprovedForAll",
      "outputs": [
        {
          "internalType": "bool",
          "name": "",
          "type": "bool"
        }
      ],
      "stateMutability": "view",
      "type": "function"
    },
    {
      "inputs": [
        {
          "internalType": "address",
          "name": "_to",
          "type": "address"
        },
        {
          "internalType": "string",
          "name": "_uri",
          "type": "string"
        }
      ],
      "name": "mintTo",
      "outputs": [],
      "stateMutability": "nonpayable",
      "type": "function"
    },
    {
      "inputs": [],
      "name": "name",
      "outputs": [
        {
          "internalType": "string",
          "name": "",
          "type": "string"
        }
      ],
      "stateMutability": "view",
      "type": "function"
    },
    {
      "inputs": [],
      "name": "nextTokenIdToMint",
      "outputs": [
        {
          "internalType": "uint256",
          "name": "",
          "type": "uint256"
        }
      ],
      "stateMutability": "view",
      "type": "function"
    },
    {
      "inputs": [
        {
          "internalType": "uint256",
          "name": "_tokenId",
          "type": "uint256"
        }
      ],
      "name": "ownerOf",
      "outputs": [
        {
          "internalType": "address",
          "name": "",
          "type": "address"
        }
      ],
      "stateMutability": "view",
      "type": "function"
    },
    {
      "inputs": [
        {
          "internalType": "address",
          "name": "_from",
          "type": "address"
        },
        {
          "internalType": "address",
          "name": "_to",
          "type": "address"
        },
        {
          "internalType": "uint256",
          "name": "_tokenId",
          "type": "uint256"
        }
      ],
      "name": "safeTransferFrom",
      "outputs": [],
      "stateMutability": "payable",
      "type": "function"
    },
    {
      "inputs": [
        {
          "internalType": "address",
          "name": "_from",
          "type": "address"
        },
        {
          "internalType": "address",
          "name": "_to",
          "type": "address"
        },
        {
          "internalType": "uint256",
          "name": "_tokenId",
          "type": "uint256"
        },
        {
          "internalType": "bytes",
          "name": "_data",
          "type": "bytes"
        }
      ],
      "name": "safeTransferFrom",
      "outputs": [],
      "stateMutability": "payable",
      "type": "function"
    },
    {
      "inputs": [
        {
          "internalType": "address",
          "name": "_operator",
          "type": "address"
        },
        {
          "internalType": "bool",
          "name": "_approved",
          "type": "bool"
        }
      ],
      "name": "setApprovalForAll",
      "outputs": [],
      "stateMutability": "nonpayable",
      "type": "function"
    },
    {
      "inputs": [],
      "name": "symbol",
      "outputs": [
        {
          "internalType": "string",
          "name": "",
          "type": "string"
        }
      ],
      "stateMutability": "view",
      "type": "function"
    },
    {
      "inputs": [
        {
          "internalType": "uint256",
          "name": "_tokenId",
          "type": "uint256"
        }
      ],
      "name": "tokenURI",
      "outputs": [
        {
          "internalType": "string",
          "name": "",
          "type": "string"
        }
      ],
      "stateMutability": "view",
      "type": "function"
    },
    {
      "inputs": [],
      "name": "totalSupply",
      "outputs": [
        {
          "internalType": "uint256",
          "name": "",
          "type": "uint256"
        }
      ],
      "stateMutability": "view",
      "type": "function"
    },
    {
      "inputs": [
        {
          "internalType": "address",
          "name": "_from",
          "type": "address"
        },
        {
          "internalType": "address",
          "name": "_to",
          "type": "address"
        },
        {
          "internalType": "uint256",
          "name": "_tokenId",
          "type": "uint256"
        }
      ],
      "name": "transferFrom",
      "outputs": [],
      "stateMutability": "payable",
      "type": "function"
    }
  ],
  "bytecode": "0x608060405234801561000f575f5ffd5b5060405161127138038061127183398101604081905261002e91610101565b5f61003983826101ea565b50600161004682826101ea565b50505f60025550600380546001600160a01b031916331790556102a4565b634e487b7160e01b5f52604160045260245ffd5b5f82601f830112610087575f5ffd5b81516001600160401b038111156100a0576100a0610064565b604051601f8201601f19908116603f011681016001600160401b03811182821017156100ce576100ce610064565b6040528181528382016020018510156100e5575f5ffd5b8160208501602083015e5f918101602001919091529392505050565b5f5f60408385031215610112575f5ffd5b82516001600160401b03811115610127575f5ffd5b61013385828601610078565b602085015190935090506001600160401b03811115610150575f5ffd5b61015c85828601610078565b9150509250929050565b600181811c9082168061017a57607f821691505b60208210810361019857634e487b7160e01b5f52602260045260245ffd5b50919050565b601f8211156101e557805f5260205f20601f840160051c810160208510156101c35750805b601f840160051c820191505b818110156101e2575f81556001016101cf565b50505b505050565b81516001600160401b0381111561020357610203610064565b610217816102118454610166565b8461019e565b6020601f821160018114610249575f83156102325750848201515b5f19600385901b1c1916600184901b1784556101e2565b5f84815260208120601f198516915b828110156102785787850151825560209485019460019092019101610258565b508482101561029557868401515f19600387901b60f8161c191681555b50505050600190811b01905550565b610fc0806102b15f395ff3fe6080604052600436106100ee575f3560e01c80636352211e11610087578063b88d4fde11610057578063b88d4fde1461027b578063c87b56dd1461028e578063ce606ee0146102ad578063e985e9c5146102cc575f5ffd5b80636352211e146101f557806370a082311461021457806395d89b4114610248578063a22cb4651461025c575f5ffd5b806318160ddd116100c257806318160ddd1461019c57806323b872dd146101ba5780633b1475a7146101cd57806342842e0e146101e2575f5ffd5b806275a317146100f257806306fdde0314610113578063081812fc1461013d578063095ea7b314610189575b5f5ffd5b3480156100fd575f5ffd5b5061011161010c366004610b78565b6102fb565b005b34801561011e575f5ffd5b506101276103ea565b6040516101349190610c04565b60405180910390f35b348015610148575f5ffd5b50610171610157366004610c1d565b5f908152600660205260409020546001600160a01b031690565b6040516001600160a01b039091168152602001610134565b610111610197366004610c34565b610475565b3480156101a7575f5ffd5b506002545b604051908152602001610134565b6101116101c8366004610c5c565b61052b565b3480156101d8575f5ffd5b506101ac60025481565b6101116101f0366004610c5c565b6105c7565b348015610200575f5ffd5b5061017161020f366004610c1d565b6105e1565b34801561021f575f5ffd5b506101ac61022e366004610c96565b6001600160a01b03165f9081526005602052604090205490565b348015610253575f5ffd5b506101276105fb565b348015610267575f5ffd5b50610111610276366004610caf565b610608565b610111610289366004610ce8565b610673565b348015610299575f5ffd5b506101276102a8366004610c1d565b61075a565b3480156102b8575f5ffd5b50600354610171906001600160a01b031681565b3480156102d7575f5ffd5b506102eb6102e6366004610d5f565b6107f9565b6040519015158152602001610134565b6003546001600160a01b0316331461032e5760405162461bcd60e51b815260040161032590610d90565b60405180910390fd5b6002545f90815260046020908152604080832080546001600160a01b0319166001600160a01b038716908117909155835260059091528120805460019290610377908490610dc3565b90915550506002545f9081526008602052604090206103968282610e59565b506002546040516001600160a01b038416905f907fddf252ad1be2c89b69c2b068fc378daa952ba7f163c4a11628f55a4df523b3ef908290a4600160025f8282546103e19190610dc3565b90915550505050565b5f80546103f690610dd6565b80601f016020809104026020016040519081016040528092919081815260200182805461042290610dd6565b801561046d5780601f106104445761010080835404028352916020019161046d565b820191905f5260205f20905b81548152906001019060200180831161045057829003601f168201915b505050505081565b3361047f826105e1565b6001600160a01b0316146104be5760405162461bcd60e51b815260206004820152600660248201526510a7bbb732b960d11b6044820152606401610325565b5f81815260066020526040902080546001600160a01b0319166001600160a01b03841690811790915581906104f2826105e1565b6001600160a01b03167f8c5be1e5ebec7d5bd14f71427d1e84f3dd0314c0f7b2291e5b200ac8c7c3b92560405160405180910390a45050565b33610535826105e1565b6001600160a01b0316148061055f57505f818152600660205260409020546001600160a01b031633145b8061059b575060075f610571836105e1565b6001600160a01b0316815260208082019290925260409081015f90812033825290925290205460ff165b6105b75760405162461bcd60e51b815260040161032590610d90565b6105c2838383610828565b505050565b6105c283838360405180602001604052805f815250610673565b5f908152600460205260409020546001600160a01b031690565b600180546103f690610dd6565b335f8181526007602090815260408083206001600160a01b03871680855290835292819020805460ff191686151590811790915590519081529192917f17307eab39ab6107e8899845ad3d59bd9653f200f220920489ca2b5937696c31910160405180910390a35050565b3361067d836105e1565b6001600160a01b031614806106a757505f828152600660205260409020546001600160a01b031633145b806106e3575060075f6106b9846105e1565b6001600160a01b0316815260208082019290925260409081015f90812033825290925290205460ff165b6106ff5760405162461bcd60e51b815260040161032590610d90565b61070a848484610828565b61071684848484610989565b6107545760405162461bcd60e51b815260206004820152600f60248201526e10a2a9219b9918a932b1b2b4bb32b960891b6044820152606401610325565b50505050565b5f81815260086020526040902080546060919061077690610dd6565b80601f01602080910402602001604051908101604052809291908181526020018280546107a290610dd6565b80156107ed5780601f106107c4576101008083540402835291602001916107ed565b820191905f5260205f20905b8154815290600101906020018083116107d057829003601f168201915b50505050509050919050565b6001600160a01b038083165f9081526007602090815260408083209385168352929052205460ff165b92915050565b826001600160a01b031661083b826105e1565b6001600160a01b03161461087a5760405162461bcd60e51b815260206004820152600660248201526510a7bbb732b960d11b6044820152606401610325565b6001600160a01b0382166108ba5760405162461bcd60e51b8152602060048201526007602482015266021546f416464360cc1b6044820152606401610325565b5f81815260066020908152604080832080546001600160a01b03191690556001600160a01b0386168352600590915281208054600192906108fc908490610f14565b90915550506001600160a01b0382165f908152600560205260408120805460019290610929908490610dc3565b90915550505f8181526004602052604080822080546001600160a01b0319166001600160a01b0386811691821790925591518493918716917fddf252ad1be2c89b69c2b068fc378daa952ba7f163c4a11628f55a4df523b3ef91a4505050565b5f6001600160a01b0384163b15610ac657604051630a85bd0160e11b81526001600160a01b0385169063150b7a02906109cc903390899088908890600401610f27565b6020604051808303815f875af1925050508015610a06575060408051601f3d908101601f19168201909252610a0391810190610f63565b60015b610aac573d808015610a33576040519150601f19603f3d011682016040523d82523d5f602084013e610a38565b606091505b5080515f03610aa45760405162461bcd60e51b815260206004820152603260248201527f4552433732313a207472616e7366657220746f206e6f6e20455243373231526560448201527131b2b4bb32b91034b6b83632b6b2b73a32b960711b6064820152608401610325565b805181602001fd5b6001600160e01b031916630a85bd0160e11b149050610aca565b5060015b949350505050565b80356001600160a01b0381168114610ae8575f5ffd5b919050565b634e487b7160e01b5f52604160045260245ffd5b5f5f67ffffffffffffffff841115610b1b57610b1b610aed565b50604051601f19601f85018116603f0116810181811067ffffffffffffffff82111715610b4a57610b4a610aed565b604052838152905080828401851015610b61575f5ffd5b838360208301375f60208583010152509392505050565b5f5f60408385031215610b89575f5ffd5b610b9283610ad2565b9150602083013567ffffffffffffffff811115610bad575f5ffd5b8301601f81018513610bbd575f5ffd5b610bcc85823560208401610b01565b9150509250929050565b5f81518084528060208401602086015e5f602082860101526020601f19601f83011685010191505092915050565b602081525f610c166020830184610bd6565b9392505050565b5f60208284031215610c2d575f5ffd5b5035919050565b5f5f60408385031215610c45575f5ffd5b610c4e83610ad2565b946020939093013593505050565b5f5f5f60608486031215610c6e575f5ffd5b610c7784610ad2565b9250610c8560208501610ad2565b929592945050506040919091013590565b5f60208284031215610ca6575f5ffd5b610c1682610ad2565b5f5f60408385031215610cc0575f5ffd5b610cc983610ad2565b915060208301358015158114610cdd575f5ffd5b809150509250929050565b5f5f5f5f60808587031215610cfb575f5ffd5b610d0485610ad2565b9350610d1260208601610ad2565b925060408501359150606085013567ffffffffffffffff811115610d34575f5ffd5b8501601f81018713610d44575f5ffd5b610d5387823560208401610b01565b91505092959194509250565b5f5f60408385031215610d70575f5ffd5b610d7983610ad2565b9150610d8760208401610ad2565b90509250929050565b60208082526005908201526404282eae8d60db1b604082015260600190565b634e487b7160e01b5f52601160045260245ffd5b8082018082111561082257610822610daf565b600181811c90821680610dea57607f821691505b602082108103610e0857634e487b7160e01b5f52602260045260245ffd5b50919050565b601f8211156105c257805f5260205f20601f840160051c81016020851015610e335750805b601f840160051c820191505b81811015610e52575f8155600101610e3f565b5050505050565b815167ffffffffffffffff811115610e7357610e73610aed565b610e8781610e818454610dd6565b84610e0e565b6020601f821160018114610eb9575f8315610ea25750848201515b5f19600385901b1c1916600184901b178455610e52565b5f84815260208120601f198516915b82811015610ee85787850151825560209485019460019092019101610ec8565b5084821015610f0557868401515f19600387901b60f8161c191681555b50505050600190811b01905550565b8181038181111561082257610822610daf565b6001600160a01b03858116825284166020820152604081018390526080606082018190525f90610f5990830184610bd6565b9695505050505050565b5f60208284031215610f73575f5ffd5b81516001600160e01b031981168114610c16575f5ffdfea26469706673582212207f27bf9466ecc64816da82c6e3877ff2770dce11f7457db715d5c41a2302211964736f6c634300081c0033",
  "linkReferences": {},
  "deployedLinkReferences": {},
  "immutableReferences": {},
  "inputSourceName": "project/contracts/ECR721.sol",
  "buildInfoId": "solc-0_8_28-5bc45c2023b635b9de7746ca018e5fe6a2bde400"
}